:0400000028EF01F0F4
:1000080000C019F001C018F002C017F00BC016F0BC
:100018000CC015F0E9CF1AF0EACF1BF0640ED66ECB
:10002800200EF26E1E4A1F2A000E006E1F50005C42
:1000380002E11E50030804E2010E1E6E000E1F6E40
:10004800849484B402D0849201D0848284B202D091
:10005800849001D08480640E046E000E056E27C063
:1000680000F028C001F0CDD808C000F009C001F0A8
:100078000050275C006E01502858016E640E046E13
:10008800000E056EBED800C05CF001C05DF0640EC5
:10009800046E000E056E6ED80050275C006E01508D
:1000A8002858016E0A0E046E000E056EAAD800C00C
:1000B80058F001C059F05CC000F05DC001F0640E5A
:1000C800046E000E056E56D80050275C5A6E01501B
:1000D80028585B6E58C000F059C001F00A0E046E33
:1000E800000E056E47D800505A5E01505B5A21D069
:1000F8005AC060F067D800C082FF84802CD058C0F6
:1001080060F060D800C082FF000E285C02E10A0E91
:10011800275CD8B084821FD05CC060F053D800C080
:1001280082FF000E285C02E1640E275CD8B084844C
:1001380012D0000E1F1802E1010E1E18D9E0000EA1
:100148001F1802E1020E1E18DAE0000E1F1802E165
:10015800030E1E18E1E019C000F018C001F017C026
:1001680002F016C00BF015C00CF01AC0E9FF1BC056
:04017800EAFF110089
:10017C000B6A0A6A096A00500402F4CF09F0F3CF43
:10018C0008F001500502F4CF0BF0F3CF0AF0005049
:10019C000502F3500926F4500A22E86A0B2201509A
:1001AC000402F3500926F4500A22E86A0B2208C014
:1001BC0000F009C001F00AC002F00BC003F01200FD
:1001CC00770E616E420E626E3B0E636E6B0E646E4A
:1001DC004E0E656E6D0E666E7D0E676E430E686E0E
:1001EC007F0E696E6F0E6A6E610EE96E000EEA6E1E
:0E01FC006050E926D8B0EA2AEECF00F01200DB
:10020A00086A096A100E0C6E013408360936045061
:10021A00085E0550D8A0053C095ED8B007D0045046
:10022A0008260550D8B0053C0926D8900036013674
:06023A000C2EEAD71200B1
:100240000900F5CFE6FF0006FBE10106F9E1120027
:100250001C6A1D6A010E1E6E1F6A010E206E216A45
:10026000226A6E0ED36E070EB46E020EC26E0B0EB5
:10027000C16EC40ED56E640ED66EA00EF26E956A77
:1002800095CF93FF816AFF0E836E070E0C6E7D0E75
:100290000D6E0D2EFED70C2EFCD7296A2A6A010E90
:1002A0002A5C02E1000E295C0EE229C081FF070EE4
:1002B0000C6E7D0E0D6E0D2EFED70C2EFCD7831E00
:1002C000294A2A2AECD7DED70D2EFED70C2EFCD7D2
:1002D00000000000839E838C6C0E0C6EC90E0D6EA8
:1002E0000D2EFED70C2EFCD700000000839C838AC5
:1002F0006C0E0C6EC90E0D6E0D2EFED70C2EFCD79B
:1003000000000000839A83886C0E0C6EC90E0D6E7F
:100310000D2EFED70C2EFCD7000000008398294A32
:100320002A2A96D70D2EFED70C2EFCD70B2EFAD7E5
:100330000000276A286A0D2EFED70C2EFCD700007D
:10034000839883B802D0839A01D0838A83BA02D07B
:10035000839E01D0838E83BE02D0839C01D0838C88
:10036000D80E0C6E940E0D6E0D2EFED70C2EFCD7F3
:100370000000294A2A2A6CD70D2EFED70C2EFCD756
:100380000000839883B802D0839A01D0838A83BA0D
:1003900002D0839E01D0838E83BE02D0839C01D085
:1003A000838C56D70D2EFED70C2EFCD70B2EFAD7EA
:1003B0008092839883B802D0839A01D0838A83BACB
:1003C00002D0839E01D0838E83BE02D0839C01D055
:1003D000838C060E0B6E130E0C6EAD0E0D6E0D2E75
:1003E000FED70C2EFCD70B2EFAD700000000FF0022
:1003F0002FD70D2EFED70C2EFCD7000029D70D2E9F
:10040000FED70C2EFCD70B2EFAD7000080908084EC
:10041000020E0B6E040E0C6EBA0E0D6E0D2EFED774
:100420000C2EFCD70B2EFAD70000809411D7FFD7E3
:020000040030CA
:0D000100081F1EFF0181FF0FC00FE00F4020
:00000001FF
